{
  "address": "0x17CA2F2035606a303B9a569a5049d2871971901F",
  "abi": [
    {
      "inputs": [
        {
          "internalType": "string",
          "name": "_nativeSymbolMarket",
          "type": "string"
        },
        {
          "internalType": "address payable",
          "name": "_rewardDistributor",
          "type": "address"
        }
      ],
      "payable": false,
      "stateMutability": "nonpayable",
      "type": "constructor"
    },
    {
      "constant": true,
      "inputs": [],
      "name": "admin",
      "outputs": [
        {
          "internalType": "address",
          "name": "",
          "type": "address"
        }
      ],
      "payable": false,
      "stateMutability": "view",
      "type": "function"
    },
    {
      "constant": false,
      "inputs": [
        {
          "internalType": "contract Joetroller",
          "name": "_joetroller",
          "type": "address"
        },
        {
          "internalType": "address",
          "name": "_account",
          "type": "address"
        }
      ],
      "name": "getAccountLimits",
      "outputs": [
        {
          "components": [
            {
              "internalType": "contract JToken[]",
              "name": "markets",
              "type": "address[]"
            },
            {
              "internalType": "uint256",
              "name": "liquidity",
              "type": "uint256"
            },
            {
              "internalType": "uint256",
              "name": "shortfall",
              "type": "uint256"
            },
            {
              "internalType": "uint256",
              "name": "totalCollateralValueUSD",
              "type": "uint256"
            },
            {
              "internalType": "uint256",
              "name": "totalBorrowValueUSD",
              "type": "uint256"
            },
            {
              "internalType": "uint256",
              "name": "healthFactor",
              "type": "uint256"
            }
          ],
          "internalType": "struct JoeLensV2.AccountLimits",
          "name": "",
          "type": "tuple"
        }
      ],
      "payable": false,
      "stateMutability": "nonpayable",
      "type": "function"
    },
    {
      "constant": false,
      "inputs": [
        {
          "internalType": "uint8",
          "name": "_rewardType",
          "type": "uint8"
        },
        {
          "internalType": "address",
          "name": "_joetroller",
          "type": "address"
        },
        {
          "internalType": "address",
          "name": "_joe",
          "type": "address"
        },
        {
          "internalType": "address payable",
          "name": "_account",
          "type": "address"
        }
      ],
      "name": "getClaimableRewards",
      "outputs": [
        {
          "internalType": "uint256",
          "name": "",
          "type": "uint256"
        }
      ],
      "payable": false,
      "stateMutability": "nonpayable",
      "type": "function"
    },
    {
      "constant": false,
      "inputs": [
        {
          "internalType": "contract JToken",
          "name": "_jToken",
          "type": "address"
        },
        {
          "internalType": "address",
          "name": "_account",
          "type": "address"
        }
      ],
      "name": "jTokenBalances",
      "outputs": [
        {
          "components": [
            {
              "internalType": "address",
              "name": "jToken",
              "type": "address"
            },
            {
              "internalType": "uint256",
              "name": "jTokenBalance",
              "type": "uint256"
            },
            {
              "internalType": "uint256",
              "name": "balanceOfUnderlyingCurrent",
              "type": "uint256"
            },
            {
              "internalType": "uint256",
              "name": "supplyValueUSD",
              "type": "uint256"
            },
            {
              "internalType": "uint256",
              "name": "collateralValueUSD",
              "type": "uint256"
            },
            {
              "internalType": "uint256",
              "name": "borrowBalanceCurrent",
              "type": "uint256"
            },
            {
              "internalType": "uint256",
              "name": "borrowValueUSD",
              "type": "uint256"
            },
            {
              "internalType": "uint256",
              "name": "underlyingTokenBalance",
              "type": "uint256"
            },
            {
              "internalType": "uint256",
              "name": "underlyingTokenAllowance",
              "type": "uint256"
            },
            {
              "internalType": "bool",
              "name": "collateralEnabled",
              "type": "bool"
            }
          ],
          "internalType": "struct JoeLensV2.JTokenBalances",
          "name": "",
          "type": "tuple"
        }
      ],
      "payable": false,
      "stateMutability": "nonpayable",
      "type": "function"
    },
    {
      "constant": false,
      "inputs": [
        {
          "internalType": "contract JToken[]",
          "name": "_jTokens",
          "type": "address[]"
        },
        {
          "internalType": "address",
          "name": "_account",
          "type": "address"
        }
      ],
      "name": "jTokenBalancesAll",
      "outputs": [
        {
          "components": [
            {
              "internalType": "address",
              "name": "jToken",
              "type": "address"
            },
            {
              "internalType": "uint256",
              "name": "jTokenBalance",
              "type": "uint256"
            },
            {
              "internalType": "uint256",
              "name": "balanceOfUnderlyingCurrent",
              "type": "uint256"
            },
            {
              "internalType": "uint256",
              "name": "supplyValueUSD",
              "type": "uint256"
            },
            {
              "internalType": "uint256",
              "name": "collateralValueUSD",
              "type": "uint256"
            },
            {
              "internalType": "uint256",
              "name": "borrowBalanceCurrent",
              "type": "uint256"
            },
            {
              "internalType": "uint256",
              "name": "borrowValueUSD",
              "type": "uint256"
            },
            {
              "internalType": "uint256",
              "name": "underlyingTokenBalance",
              "type": "uint256"
            },
            {
              "internalType": "uint256",
              "name": "underlyingTokenAllowance",
              "type": "uint256"
            },
            {
              "internalType": "bool",
              "name": "collateralEnabled",
              "type": "bool"
            }
          ],
          "internalType": "struct JoeLensV2.JTokenBalances[]",
          "name": "",
          "type": "tuple[]"
        }
      ],
      "payable": false,
      "stateMutability": "nonpayable",
      "type": "function"
    },
    {
      "constant": false,
      "inputs": [
        {
          "internalType": "contract JToken",
          "name": "_jToken",
          "type": "address"
        }
      ],
      "name": "jTokenMetadata",
      "outputs": [
        {
          "components": [
            {
              "internalType": "address",
              "name": "jToken",
              "type": "address"
            },
            {
              "internalType": "uint256",
              "name": "exchangeRateCurrent",
              "type": "uint256"
            },
            {
              "internalType": "uint256",
              "name": "supplyRatePerSecond",
              "type": "uint256"
            },
            {
              "internalType": "uint256",
              "name": "borrowRatePerSecond",
              "type": "uint256"
            },
            {
              "internalType": "uint256",
              "name": "reserveFactorMantissa",
              "type": "uint256"
            },
            {
              "internalType": "uint256",
              "name": "totalBorrows",
              "type": "uint256"
            },
            {
              "internalType": "uint256",
              "name": "totalReserves",
              "type": "uint256"
            },
            {
              "internalType": "uint256",
              "name": "totalSupply",
              "type": "uint256"
            },
            {
              "internalType": "uint256",
              "name": "totalCash",
              "type": "uint256"
            },
            {
              "internalType": "uint256",
              "name": "totalCollateralTokens",
              "type": "uint256"
            },
            {
              "internalType": "bool",
              "name": "isListed",
              "type": "bool"
            },
            {
              "internalType": "uint256",
              "name": "collateralFactorMantissa",
              "type": "uint256"
            },
            {
              "internalType": "address",
              "name": "underlyingAssetAddress",
              "type": "address"
            },
            {
              "internalType": "uint256",
              "name": "jTokenDecimals",
              "type": "uint256"
            },
            {
              "internalType": "uint256",
              "name": "underlyingDecimals",
              "type": "uint256"
            },
            {
              "internalType": "enum JoetrollerV1Storage.Version",
              "name": "version",
              "type": "uint8"
            },
            {
              "internalType": "uint256",
              "name": "collateralCap",
              "type": "uint256"
            },
            {
              "internalType": "uint256",
              "name": "underlyingPrice",
              "type": "uint256"
            },
            {
              "internalType": "bool",
              "name": "supplyPaused",
              "type": "bool"
            },
            {
              "internalType": "bool",
              "name": "borrowPaused",
              "type": "bool"
            },
            {
              "internalType": "uint256",
              "name": "supplyCap",
              "type": "uint256"
            },
            {
              "internalType": "uint256",
              "name": "borrowCap",
              "type": "uint256"
            },
            {
              "internalType": "uint256",
              "name": "supplyJoeRewardsPerSecond",
              "type": "uint256"
            },
            {
              "internalType": "uint256",
              "name": "borrowJoeRewardsPerSecond",
              "type": "uint256"
            },
            {
              "internalType": "uint256",
              "name": "supplyAvaxRewardsPerSecond",
              "type": "uint256"
            },
            {
              "internalType": "uint256",
              "name": "borrowAvaxRewardsPerSecond",
              "type": "uint256"
            }
          ],
          "internalType": "struct JoeLensV2.JTokenMetadata",
          "name": "",
          "type": "tuple"
        }
      ],
      "payable": false,
      "stateMutability": "nonpayable",
      "type": "function"
    },
    {
      "constant": false,
      "inputs": [
        {
          "internalType": "contract JToken[]",
          "name": "_jTokens",
          "type": "address[]"
        }
      ],
      "name": "jTokenMetadataAll",
      "outputs": [
        {
          "components": [
            {
              "internalType": "address",
              "name": "jToken",
              "type": "address"
            },
            {
              "internalType": "uint256",
              "name": "exchangeRateCurrent",
              "type": "uint256"
            },
            {
              "internalType": "uint256",
              "name": "supplyRatePerSecond",
              "type": "uint256"
            },
            {
              "internalType": "uint256",
              "name": "borrowRatePerSecond",
              "type": "uint256"
            },
            {
              "internalType": "uint256",
              "name": "reserveFactorMantissa",
              "type": "uint256"
            },
            {
              "internalType": "uint256",
              "name": "totalBorrows",
              "type": "uint256"
            },
            {
              "internalType": "uint256",
              "name": "totalReserves",
              "type": "uint256"
            },
            {
              "internalType": "uint256",
              "name": "totalSupply",
              "type": "uint256"
            },
            {
              "internalType": "uint256",
              "name": "totalCash",
              "type": "uint256"
            },
            {
              "internalType": "uint256",
              "name": "totalCollateralTokens",
              "type": "uint256"
            },
            {
              "internalType": "bool",
              "name": "isListed",
              "type": "bool"
            },
            {
              "internalType": "uint256",
              "name": "collateralFactorMantissa",
              "type": "uint256"
            },
            {
              "internalType": "address",
              "name": "underlyingAssetAddress",
              "type": "address"
            },
            {
              "internalType": "uint256",
              "name": "jTokenDecimals",
              "type": "uint256"
            },
            {
              "internalType": "uint256",
              "name": "underlyingDecimals",
              "type": "uint256"
            },
            {
              "internalType": "enum JoetrollerV1Storage.Version",
              "name": "version",
              "type": "uint8"
            },
            {
              "internalType": "uint256",
              "name": "collateralCap",
              "type": "uint256"
            },
            {
              "internalType": "uint256",
              "name": "underlyingPrice",
              "type": "uint256"
            },
            {
              "internalType": "bool",
              "name": "supplyPaused",
              "type": "bool"
            },
            {
              "internalType": "bool",
              "name": "borrowPaused",
              "type": "bool"
            },
            {
              "internalType": "uint256",
              "name": "supplyCap",
              "type": "uint256"
            },
            {
              "internalType": "uint256",
              "name": "borrowCap",
              "type": "uint256"
            },
            {
              "internalType": "uint256",
              "name": "supplyJoeRewardsPerSecond",
              "type": "uint256"
            },
            {
              "internalType": "uint256",
              "name": "borrowJoeRewardsPerSecond",
              "type": "uint256"
            },
            {
              "internalType": "uint256",
              "name": "supplyAvaxRewardsPerSecond",
              "type": "uint256"
            },
            {
              "internalType": "uint256",
              "name": "borrowAvaxRewardsPerSecond",
              "type": "uint256"
            }
          ],
          "internalType": "struct JoeLensV2.JTokenMetadata[]",
          "name": "",
          "type": "tuple[]"
        }
      ],
      "payable": false,
      "stateMutability": "nonpayable",
      "type": "function"
    },
    {
      "constant": true,
      "inputs": [],
      "name": "nativeSymbolMarket",
      "outputs": [
        {
          "internalType": "string",
          "name": "",
          "type": "string"
        }
      ],
      "payable": false,
      "stateMutability": "view",
      "type": "function"
    },
    {
      "constant": true,
      "inputs": [],
      "name": "rewardDistributor",
      "outputs": [
        {
          "internalType": "address payable",
          "name": "",
          "type": "address"
        }
      ],
      "payable": false,
      "stateMutability": "view",
      "type": "function"
    },
    {
      "constant": false,
      "inputs": [
        {
          "internalType": "address payable",
          "name": "_admin",
          "type": "address"
        }
      ],
      "name": "setAdmin",
      "outputs": [],
      "payable": false,
      "stateMutability": "nonpayable",
      "type": "function"
    },
    {
      "constant": false,
      "inputs": [
        {
          "internalType": "address payable",
          "name": "_newRewardDistributor",
          "type": "address"
        }
      ],
      "name": "setRewardDistributor",
      "outputs": [],
      "payable": false,
      "stateMutability": "nonpayable",
      "type": "function"
    }
  ],
  "transactionHash": "0xd06ca468274aa4ba87eb618f5154cb12685ffb876d4aba97dbe519a7f04396f0",
  "args": [
    "jAVAX",
    "0x7e07E5caF14A249192d9cECedb8e5218C6e320C1"
  ],
  "numDeployments": 1,
  "solcInputHash": "421d4275614efa8107facdab4b2adea5",
  "bytecode": "0x60806040523480156200001157600080fd5b506040516200343238038062003432833981016040819052620000349162000197565b600080546001600160a01b0319163317905581516200005b90600290602085019062000083565b50600180546001600160a01b0319166001600160a01b0392909216919091179055506200029b565b828054600181600116156101000203166002900490600052602060002090601f016020900481019282601f10620000c657805160ff1916838001178555620000f6565b82800160010185558215620000f6579182015b82811115620000f6578251825591602001919060010190620000d9565b506200010492915062000108565b5090565b6200012591905b808211156200010457600081556001016200010f565b90565b8051620001358162000281565b92915050565b600082601f8301126200014d57600080fd5b8151620001646200015e8262000214565b620001ed565b915080825260208301602083018583830111156200018157600080fd5b6200018e8382846200024e565b50505092915050565b60008060408385031215620001ab57600080fd5b82516001600160401b03811115620001c257600080fd5b620001d0858286016200013b565b9250506020620001e38582860162000128565b9150509250929050565b6040518181016001600160401b03811182821017156200020c57600080fd5b604052919050565b60006001600160401b038211156200022b57600080fd5b506020601f91909101601f19160190565b60006001600160a01b03821662000135565b60005b838110156200026b57818101518382015260200162000251565b838111156200027b576000848401525b50505050565b6200028c816200023c565b81146200029857600080fd5b50565b61318780620002ab6000396000f3fe608060405234801561001057600080fd5b50600436106100a85760003560e01c80638861311111610071578063886131111461014b578063a1809b951461016b578063acc2166a1461017e578063d9ca3c9c14610193578063f851a440146101b3578063feb2d732146101bb576100a8565b8062673b0c146100ad57806354781336146100d657806357553afb146100f6578063704b6c02146101165780637dd8f6d91461012b575b600080fd5b6100c06100bb36600461265d565b6101d0565b6040516100cd9190612f02565b60405180910390f35b6100e96100e4366004612828565b610269565b6040516100cd9190612fd0565b610109610104366004612737565b6104a7565b6040516100cd9190612fb2565b6101296101243660046125c8565b610bf9565b005b61013e610139366004612737565b610c45565b6040516100cd9190612fa1565b61015e6101593660046125e6565b610e5b565b6040516100cd9190612f13565b6101296101793660046125c8565b6110e7565b610186611133565b6040516100cd9190612eb0565b6101a66101a1366004612719565b611142565b6040516100cd9190612fc1565b610186611249565b6101c3611258565b6040516100cd9190612f40565b606060008351905060608160405190808252806020026020018201604052801561021457816020015b610201612233565b8152602001906001900390816101f95790505b50905060005b8281101561025e5761023f86828151811061023157fe5b6020026020010151866104a7565b82828151811061024b57fe5b602090810291909101015260010161021a565b509150505b92915050565b600060018560ff1611156102985760405162461bcd60e51b815260040161028f90612f61565b60405180910390fd5b60ff8516610417576040516370a0823160e01b81526000906001600160a01b038516906370a08231906102cf908690600401612ebe565b60206040518083038186803b1580156102e757600080fd5b505afa1580156102fb573d6000803e3d6000fd5b505050506040513d601f19601f8201168201806040525061031f91908101906127a9565b604051630952c56360e01b81529091506001600160a01b03861690630952c56390610351906000908790600401612f32565b600060405180830381600087803b15801561036b57600080fd5b505af115801561037f573d6000803e3d6000fd5b50506040516370a0823160e01b8152600092506001600160a01b03871691506370a08231906103b2908790600401612ebe565b60206040518083038186803b1580156103ca57600080fd5b505afa1580156103de573d6000803e3d6000fd5b505050506040513d601f19601f8201168201806040525061040291908101906127a9565b905061040e81836112e3565b9250505061049f565b8460ff166001141561049f57604051630952c56360e01b81526001600160a01b03808416319190861690630952c56390610458906001908790600401612f32565b600060405180830381600087803b15801561047257600080fd5b505af1158015610486573d6000803e3d6000fd5b505050506001600160a01b0383163161040e81836112e3565b949350505050565b6104af612233565b6104b7612233565b6000846001600160a01b0316636330533c6040518163ffffffff1660e01b815260040160206040518083038186803b1580156104f257600080fd5b505afa158015610506573d6000803e3d6000fd5b505050506040513d601f19601f8201168201806040525061052a9190810190612756565b6001600160a01b03808716845260405163929fe9a160e01b815291925082169063929fe9a1906105609087908990600401612ee7565b60206040518083038186803b15801561057857600080fd5b505afa15801561058c573d6000803e3d6000fd5b505050506040513d601f19601f820116820180604052506105b091908101906126ae565b826101200190151590811515815250506106c5856001600160a01b03166395d89b416040518163ffffffff1660e01b815260040160006040518083038186803b1580156105fc57600080fd5b505afa158015610610573d6000803e3d6000fd5b505050506040513d6000823e601f3d908101601f191682016040526106389190810190612774565b6002805460408051602060018416156101000260001901909316849004601f810184900484028201840190925281815292918301828280156106bb5780601f10610690576101008083540402835291602001916106bb565b820191906000526020600020905b81548152906001019060200180831161069e57829003601f168201915b5050505050611324565b156106e7576001600160a01b038416803160e08401523161010083015261086a565b60008590506000816001600160a01b0316636f307dc36040518163ffffffff1660e01b815260040160206040518083038186803b15801561072757600080fd5b505afa15801561073b573d6000803e3d6000fd5b505050506040513d601f19601f8201168201806040525061075f91908101906125aa565b6040516370a0823160e01b81529091506001600160a01b038216906370a082319061078e908990600401612eb0565b60206040518083038186803b1580156107a657600080fd5b505afa1580156107ba573d6000803e3d6000fd5b505050506040513d601f19601f820116820180604052506107de91908101906127a9565b60e0850152604051636eb1769f60e11b81526001600160a01b0382169063dd62ed3e906108119089908b90600401612ecc565b60206040518083038186803b15801561082957600080fd5b505afa15801561083d573d6000803e3d6000fd5b505050506040513d601f19601f8201168201806040525061086191908101906127a9565b61010085015250505b6040516370a0823160e01b81526001600160a01b038616906370a0823190610896908790600401612eb0565b60206040518083038186803b1580156108ae57600080fd5b505afa1580156108c2573d6000803e3d6000fd5b505050506040513d601f19601f820116820180604052506108e691908101906127a9565b60208301526040516305eff7ef60e21b81526001600160a01b038616906317bfdfbc90610917908790600401612eb0565b602060405180830381600087803b15801561093157600080fd5b505af1158015610945573d6000803e3d6000fd5b505050506040513d601f19601f8201168201806040525061096991908101906127a9565b60a0830152604051633af9e66960e01b81526001600160a01b03861690633af9e6699061099a908790600401612eb0565b602060405180830381600087803b1580156109b457600080fd5b505af11580156109c8573d6000803e3d6000fd5b505050506040513d601f19601f820116820180604052506109ec91908101906127a9565b8260400181815250506000816001600160a01b0316637dc0d1d06040518163ffffffff1660e01b815260040160206040518083038186803b158015610a3057600080fd5b505afa158015610a44573d6000803e3d6000fd5b505050506040513d601f19601f82011682018060405250610a689190810190612756565b90506000816001600160a01b031663fc57d4df886040518263ffffffff1660e01b8152600401610a989190612f24565b60206040518083038186803b158015610ab057600080fd5b505afa158015610ac4573d6000803e3d6000fd5b505050506040513d601f19601f82011682018060405250610ae891908101906127a9565b90506000836001600160a01b0316638e8f294b896040518263ffffffff1660e01b8152600401610b189190612eb0565b60606040518083038186803b158015610b3057600080fd5b505afa158015610b44573d6000803e3d6000fd5b505050506040513d601f19601f82011682018060405250610b6891908101906126cc565b50915050610b74612291565b5060408051602081018252908601518152610b8f818461137d565b6060870152610b9c612291565b6040518060200160405280848152509050610bbb81886060015161137d565b6080880152610bc8612291565b50604080516020810190915260a08801518152610be5818661137d565b60c089015250959998505050505050505050565b6000546001600160a01b03163314610c235760405162461bcd60e51b815260040161028f90612f91565b600080546001600160a01b0319166001600160a01b0392909216919091179055565b610c4d6122a4565b610c556122a4565b604051635ec88c7960e01b81526000906001600160a01b03861690635ec88c7990610c84908790600401612eb0565b60606040518083038186803b158015610c9c57600080fd5b505afa158015610cb0573d6000803e3d6000fd5b505050506040513d601f19601f82011682018060405250610cd491908101906127c7565b6040850152602084015290508015610cfe5760405162461bcd60e51b815260040161028f90612f71565b604051632aff3bff60e21b81526001600160a01b0386169063abfceffc90610d2a908790600401612eb0565b60006040518083038186803b158015610d4257600080fd5b505afa158015610d56573d6000803e3d6000fd5b505050506040513d6000823e601f3d908101601f19168201604052610d7e9190810190612628565b808352606090610d8e90866101d0565b905060005b8151811015610dfc57610dc18460600151838381518110610db057fe5b60200260200101516080015161139c565b846060018181525050610def8460800151838381518110610dde57fe5b602002602001015160c0015161139c565b6080850152600101610d93565b50610e05612291565b50604080516020810190915260808401518152606084015115610e48576000846080015111610e35576064610e43565b610e438460600151826113d2565b610e4b565b60005b60a0850152509195945050505050565b60608180610e7b5760405162461bcd60e51b815260040161028f90612f81565b606081604051908082528060200260200182016040528015610eb757816020015b610ea46122da565b815260200190600190039081610e9c5790505b509050600085856000818110610ec957fe5b9050602002016020610ede9190810190612719565b6001600160a01b0316636330533c6040518163ffffffff1660e01b815260040160206040518083038186803b158015610f1657600080fd5b505afa158015610f2a573d6000803e3d6000fd5b505050506040513d601f19601f82011682018060405250610f4e9190810190612756565b90506000816001600160a01b0316637dc0d1d06040518163ffffffff1660e01b815260040160206040518083038186803b158015610f8b57600080fd5b505afa158015610f9f573d6000803e3d6000fd5b505050506040513d601f19601f82011682018060405250610fc39190810190612756565b905060005b848110156110db57878782818110610fdc57fe5b9050602002016020610ff19190810190612719565b6001600160a01b0316636330533c6040518163ffffffff1660e01b815260040160206040518083038186803b15801561102957600080fd5b505afa15801561103d573d6000803e3d6000fd5b505050506040513d601f19601f820116820180604052506110619190810190612756565b6001600160a01b0316836001600160a01b0316146110915760405162461bcd60e51b815260040161028f90612f51565b6110bc8888838181106110a057fe5b90506020020160206110b59190810190612719565b84846113f0565b8482815181106110c857fe5b6020908102919091010152600101610fc8565b50919695505050505050565b6000546001600160a01b031633146111115760405162461bcd60e51b815260040161028f90612f91565b600180546001600160a01b0319166001600160a01b0392909216919091179055565b6001546001600160a01b031681565b61114a6122da565b6000826001600160a01b0316636330533c6040518163ffffffff1660e01b815260040160206040518083038186803b15801561118557600080fd5b505afa158015611199573d6000803e3d6000fd5b505050506040513d601f19601f820116820180604052506111bd9190810190612756565b90506000816001600160a01b0316637dc0d1d06040518163ffffffff1660e01b815260040160206040518083038186803b1580156111fa57600080fd5b505afa15801561120e573d6000803e3d6000fd5b505050506040513d601f19601f820116820180604052506112329190810190612756565b905061123f8483836113f0565b925050505b919050565b6000546001600160a01b031681565b6002805460408051602060018416156101000260001901909316849004601f810184900484028201840190925281815292918301828280156112db5780601f106112b0576101008083540402835291602001916112db565b820191906000526020600020905b8154815290600101906020018083116112be57829003601f168201915b505050505081565b600061131d8383604051806040016040528060158152602001747375627472616374696f6e20756e646572666c6f7760581b8152506120ad565b9392505050565b6000816040516020016113379190612ea4565b604051602081830303815290604052805190602001208360405160200161135e9190612ea4565b6040516020818303038152906040528051906020012014905092915050565b6000611387612291565b61139184846120d9565b905061049f81612103565b600061131d8383604051806040016040528060118152602001706164646974696f6e206f766572666c6f7760781b815250612112565b600061131d6113e984670de0b6b3a7640000612142565b8351612184565b6113f86122da565b6000806000856001600160a01b0316638e8f294b886040518263ffffffff1660e01b81526004016114299190612eb0565b60606040518083038186803b15801561144157600080fd5b505afa158015611455573d6000803e3d6000fd5b505050506040513d601f19601f8201168201806040525061147991908101906126cc565b9250925092506000806000806114c18b6001600160a01b03166395d89b416040518163ffffffff1660e01b815260040160006040518083038186803b1580156105fc57600080fd5b156114d3576000935060129250611633565b60008b9050806001600160a01b0316636f307dc36040518163ffffffff1660e01b815260040160206040518083038186803b15801561151157600080fd5b505afa158015611525573d6000803e3d6000fd5b505050506040513d601f19601f8201168201806040525061154991908101906125aa565b9450806001600160a01b0316636f307dc36040518163ffffffff1660e01b815260040160206040518083038186803b15801561158457600080fd5b505afa158015611598573d6000803e3d6000fd5b505050506040513d601f19601f820116820180604052506115bc91908101906125aa565b6001600160a01b031663313ce5676040518163ffffffff1660e01b815260040160206040518083038186803b1580156115f457600080fd5b505afa158015611608573d6000803e3d6000fd5b505050506040513d601f19601f8201168201806040525061162c919081019061280a565b60ff169350505b600185600281111561164157fe5b141561172e578a6001600160a01b031663d2bb18e96040518163ffffffff1660e01b815260040160206040518083038186803b15801561168057600080fd5b505afa158015611694573d6000803e3d6000fd5b505050506040513d601f19601f820116820180604052506116b891908101906127a9565b91508a6001600160a01b03166319a4dd3c6040518163ffffffff1660e01b815260040160206040518083038186803b1580156116f357600080fd5b505afa158015611707573d6000803e3d6000fd5b505050506040513d601f19601f8201168201806040525061172b91908101906127a9565b90505b6040518061034001604052808c6001600160a01b031681526020018c6001600160a01b031663bd6d894d6040518163ffffffff1660e01b8152600401602060405180830381600087803b15801561178457600080fd5b505af1158015611798573d6000803e3d6000fd5b505050506040513d601f19601f820116820180604052506117bc91908101906127a9565b81526020018c6001600160a01b031663b1d389746040518163ffffffff1660e01b815260040160206040518083038186803b1580156117fa57600080fd5b505afa15801561180e573d6000803e3d6000fd5b505050506040513d601f19601f8201168201806040525061183291908101906127a9565b81526020018c6001600160a01b031663526097506040518163ffffffff1660e01b815260040160206040518083038186803b15801561187057600080fd5b505afa158015611884573d6000803e3d6000fd5b505050506040513d601f19601f820116820180604052506118a891908101906127a9565b81526020018c6001600160a01b031663173b99046040518163ffffffff1660e01b815260040160206040518083038186803b1580156118e657600080fd5b505afa1580156118fa573d6000803e3d6000fd5b505050506040513d601f19601f8201168201806040525061191e91908101906127a9565b81526020018c6001600160a01b03166347bd37186040518163ffffffff1660e01b815260040160206040518083038186803b15801561195c57600080fd5b505afa158015611970573d6000803e3d6000fd5b505050506040513d601f19601f8201168201806040525061199491908101906127a9565b81526020018c6001600160a01b0316638f840ddd6040518163ffffffff1660e01b815260040160206040518083038186803b1580156119d257600080fd5b505afa1580156119e6573d6000803e3d6000fd5b505050506040513d601f19601f82011682018060405250611a0a91908101906127a9565b81526020018c6001600160a01b03166318160ddd6040518163ffffffff1660e01b815260040160206040518083038186803b158015611a4857600080fd5b505afa158015611a5c573d6000803e3d6000fd5b505050506040513d601f19601f82011682018060405250611a8091908101906127a9565b81526020018c6001600160a01b0316633b1d21a26040518163ffffffff1660e01b815260040160206040518083038186803b158015611abe57600080fd5b505afa158015611ad2573d6000803e3d6000fd5b505050506040513d601f19601f82011682018060405250611af691908101906127a9565b81526020018281526020018815158152602001878152602001856001600160a01b031681526020018c6001600160a01b031663313ce5676040518163ffffffff1660e01b815260040160206040518083038186803b158015611b5757600080fd5b505afa158015611b6b573d6000803e3d6000fd5b505050506040513d601f19601f82011682018060405250611b8f919081019061280a565b60ff168152602001848152602001866002811115611ba957fe5b81526020018381526020018a6001600160a01b031663fc57d4df8e6040518263ffffffff1660e01b8152600401611be09190612f24565b60206040518083038186803b158015611bf857600080fd5b505afa158015611c0c573d6000803e3d6000fd5b505050506040513d601f19601f82011682018060405250611c3091908101906127a9565b81526020018b6001600160a01b031663731f0c2b8e6040518263ffffffff1660e01b8152600401611c619190612eb0565b60206040518083038186803b158015611c7957600080fd5b505afa158015611c8d573d6000803e3d6000fd5b505050506040513d601f19601f82011682018060405250611cb191908101906126ae565b151581526020018b6001600160a01b0316636d154ea58e6040518263ffffffff1660e01b8152600401611ce49190612eb0565b60206040518083038186803b158015611cfc57600080fd5b505afa158015611d10573d6000803e3d6000fd5b505050506040513d601f19601f82011682018060405250611d3491908101906126ae565b151581526020018b6001600160a01b03166302c3bcbb8e6040518263ffffffff1660e01b8152600401611d679190612eb0565b60206040518083038186803b158015611d7f57600080fd5b505afa158015611d93573d6000803e3d6000fd5b505050506040513d601f19601f82011682018060405250611db791908101906127a9565b81526020018b6001600160a01b0316634a5844328e6040518263ffffffff1660e01b8152600401611de89190612eb0565b60206040518083038186803b158015611e0057600080fd5b505afa158015611e14573d6000803e3d6000fd5b505050506040513d601f19601f82011682018060405250611e3891908101906127a9565b8152602001600160009054906101000a90046001600160a01b03166001600160a01b031663030ce63860008f6040518363ffffffff1660e01b8152600401611e81929190612f32565b60206040518083038186803b158015611e9957600080fd5b505afa158015611ead573d6000803e3d6000fd5b505050506040513d601f19601f82011682018060405250611ed191908101906127a9565b8152602001600160009054906101000a90046001600160a01b03166001600160a01b031663bf09595560008f6040518363ffffffff1660e01b8152600401611f1a929190612f32565b60206040518083038186803b158015611f3257600080fd5b505afa158015611f46573d6000803e3d6000fd5b505050506040513d601f19601f82011682018060405250611f6a91908101906127a9565b8152602001600160009054906101000a90046001600160a01b03166001600160a01b031663030ce63860018f6040518363ffffffff1660e01b8152600401611fb3929190612f32565b60206040518083038186803b158015611fcb57600080fd5b505afa158015611fdf573d6000803e3d6000fd5b505050506040513d601f19601f8201168201806040525061200391908101906127a9565b8152602001600160009054906101000a90046001600160a01b03166001600160a01b031663bf09595560018f6040518363ffffffff1660e01b815260040161204c929190612f32565b60206040518083038186803b15801561206457600080fd5b505afa158015612078573d6000803e3d6000fd5b505050506040513d601f19601f8201168201806040525061209c91908101906127a9565b90529b9a5050505050505050505050565b600081848411156120d15760405162461bcd60e51b815260040161028f9190612f40565b505050900390565b6120e1612291565b60405180602001604052806120fa856000015185612142565b90529392505050565b51670de0b6b3a7640000900490565b600083830182858210156121395760405162461bcd60e51b815260040161028f9190612f40565b50949350505050565b600061131d83836040518060400160405280601781526020017f6d756c7469706c69636174696f6e206f766572666c6f770000000000000000008152506121b7565b600061131d83836040518060400160405280600e81526020016d646976696465206279207a65726f60901b8152506121ff565b60008315806121c4575082155b156121d15750600061131d565b838302838582816121de57fe5b041483906121395760405162461bcd60e51b815260040161028f9190612f40565b600081836122205760405162461bcd60e51b815260040161028f9190612f40565b5082848161222a57fe5b04949350505050565b60405180610140016040528060006001600160a01b0316815260200160008152602001600081526020016000815260200160008152602001600081526020016000815260200160008152602001600081526020016000151581525090565b6040518060200160405280600081525090565b6040518060c001604052806060815260200160008152602001600081526020016000815260200160008152602001600081525090565b60405180610340016040528060006001600160a01b031681526020016000815260200160008152602001600081526020016000815260200160008152602001600081526020016000815260200160008152602001600081526020016000151581526020016000815260200160006001600160a01b0316815260200160008152602001600081526020016000600281111561237057fe5b815260200160008152602001600081526020016000151581526020016000151581526020016000815260200160008152602001600081526020016000815260200160008152602001600081525090565b8035610263816130ff565b8051610263816130ff565b60008083601f8401126123e857600080fd5b50813567ffffffffffffffff81111561240057600080fd5b60208301915083602082028301111561241857600080fd5b9250929050565b600082601f83011261243057600080fd5b813561244361243e82613005565b612fde565b9150818183526020840193506020810190508385602084028201111561246857600080fd5b60005b83811015612494578161247e8882612519565b845250602092830192919091019060010161246b565b5050505092915050565b600082601f8301126124af57600080fd5b81516124bd61243e82613005565b915081818352602084019350602081019050838560208402820111156124e257600080fd5b60005b8381101561249457816124f88882612524565b84525060209283019291909101906001016124e5565b805161026381613113565b80356102638161311c565b80516102638161311c565b805161026381613125565b600082601f83011261254b57600080fd5b815161255961243e82613026565b9150808252602083016020830185838301111561257557600080fd5b6125808382846130bc565b50505092915050565b805161026381613132565b80356102638161313b565b80516102638161313b565b6000602082840312156125bc57600080fd5b600061049f84846123cb565b6000602082840312156125da57600080fd5b600061049f84846123c0565b600080602083850312156125f957600080fd5b823567ffffffffffffffff81111561261057600080fd5b61261c858286016123d6565b92509250509250929050565b60006020828403121561263a57600080fd5b815167ffffffffffffffff81111561265157600080fd5b61049f8482850161249e565b6000806040838503121561267057600080fd5b823567ffffffffffffffff81111561268757600080fd5b6126938582860161241f565b92505060206126a4858286016123c0565b9150509250929050565b6000602082840312156126c057600080fd5b600061049f848461250e565b6000806000606084860312156126e157600080fd5b60006126ed868661250e565b93505060206126fe86828701612589565b925050604061270f8682870161252f565b9150509250925092565b60006020828403121561272b57600080fd5b600061049f8484612519565b6000806040838503121561274a57600080fd5b60006126938585612519565b60006020828403121561276857600080fd5b600061049f8484612524565b60006020828403121561278657600080fd5b815167ffffffffffffffff81111561279d57600080fd5b61049f8482850161253a565b6000602082840312156127bb57600080fd5b600061049f8484612589565b6000806000606084860312156127dc57600080fd5b60006127e88686612589565b93505060206127f986828701612589565b925050604061270f86828701612589565b60006020828403121561281c57600080fd5b600061049f848461259f565b6000806000806080858703121561283e57600080fd5b600061284a8787612594565b945050602061285b878288016123c0565b935050604061286c878288016123c0565b925050606061287d878288016123c0565b91505092959194509250565b600061289583836129dd565b505060200190565b60006128a98383612bc7565b50506101400190565b60006128be8383612c8e565b50506103400190565b6128d08161309b565b82525050565b6128d081613061565b60006128ea82613054565b6128f48185613058565b93506128ff8361304e565b8060005b8381101561292d5781516129178882612889565b97506129228361304e565b925050600101612903565b509495945050505050565b600061294382613054565b61294d8185613058565b93506129588361304e565b8060005b8381101561292d578151612970888261289d565b975061297b8361304e565b92505060010161295c565b600061299182613054565b61299b8185613058565b93506129a68361304e565b8060005b8381101561292d5781516129be88826128b2565b97506129c98361304e565b9250506001016129aa565b6128d08161306c565b6128d081613071565b6128d0816130a6565b6128d0816130b1565b6000612a0382613054565b612a0d8185613058565b9350612a1d8185602086016130bc565b612a26816130e8565b9093019392505050565b6000612a3b82613054565b612a458185611244565b9350612a558185602086016130bc565b9290920192915050565b6000612a6c601383613058565b7236b4b9b6b0ba31b4103537b2ba3937b63632b960691b815260200192915050565b6000612a9b601583613058565b741c995dd85c99151e5c19481a5cc81a5b9d985b1a59605a1b815260200192915050565b6000612acc601b83613058565b7f43616e277420676574206163636f756e74206c69717569646974790000000000815260200192915050565b6000612b05600d83613058565b6c1a5b9d985b1a59081a5b9c1d5d609a1b815260200192915050565b6000612b2e600983613058565b683737ba1030b236b4b760b91b815260200192915050565b805160c080845260009190840190612b5e82826128df565b9150506020830151612b736020860182612e9b565b506040830151612b866040860182612e9b565b506060830151612b996060860182612e9b565b506080830151612bac6080860182612e9b565b5060a0830151612bbf60a0860182612e9b565b509392505050565b8051610140830190612bd984826128d6565b506020820151612bec6020850182612e9b565b506040820151612bff6040850182612e9b565b506060820151612c126060850182612e9b565b506080820151612c256080850182612e9b565b5060a0820151612c3860a0850182612e9b565b5060c0820151612c4b60c0850182612e9b565b5060e0820151612c5e60e0850182612e9b565b50610100820151612c73610100850182612e9b565b50610120820151612c886101208501826129d4565b50505050565b8051610340830190612ca084826128d6565b506020820151612cb36020850182612e9b565b506040820151612cc66040850182612e9b565b506060820151612cd96060850182612e9b565b506080820151612cec6080850182612e9b565b5060a0820151612cff60a0850182612e9b565b5060c0820151612d1260c0850182612e9b565b5060e0820151612d2560e0850182612e9b565b50610100820151612d3a610100850182612e9b565b50610120820151612d4f610120850182612e9b565b50610140820151612d646101408501826129d4565b50610160820151612d79610160850182612e9b565b50610180820151612d8e6101808501826128d6565b506101a0820151612da36101a0850182612e9b565b506101c0820151612db86101c0850182612e9b565b506101e0820151612dcd6101e08501826129e6565b50610200820151612de2610200850182612e9b565b50610220820151612df7610220850182612e9b565b50610240820151612e0c6102408501826129d4565b50610260820151612e216102608501826129d4565b50610280820151612e36610280850182612e9b565b506102a0820151612e4b6102a0850182612e9b565b506102c0820151612e606102c0850182612e9b565b506102e0820151612e756102e0850182612e9b565b50610300820151612e8a610300850182612e9b565b50610320820151612c886103208501825b6128d081613092565b600061131d8284612a30565b6020810161026382846128d6565b6020810161026382846128c7565b60408101612eda82856128d6565b61131d60208301846128d6565b60408101612ef582856128d6565b61131d60208301846129dd565b6020808252810161131d8184612938565b6020808252810161131d8184612986565b6020810161026382846129dd565b60408101612eda82856129ef565b6020808252810161131d81846129f8565b6020808252810161026381612a5f565b6020808252810161026381612a8e565b6020808252810161026381612abf565b6020808252810161026381612af8565b6020808252810161026381612b21565b6020808252810161131d8184612b46565b61014081016102638284612bc7565b61034081016102638284612c8e565b602081016102638284612e9b565b60405181810167ffffffffffffffff81118282101715612ffd57600080fd5b604052919050565b600067ffffffffffffffff82111561301c57600080fd5b5060209081020190565b600067ffffffffffffffff82111561303d57600080fd5b506020601f91909101601f19160190565b60200190565b5190565b90815260200190565b600061026382613086565b151590565b600061026382613061565b80611244816130f2565b6001600160a01b031690565b90565b60ff1690565b600061026382613071565b60006102638261307c565b600061026382613095565b60005b838110156130d75781810151838201526020016130bf565b83811115612c885750506000910152565b601f01601f191690565b600381106130fc57fe5b50565b61310881613061565b81146130fc57600080fd5b6131088161306c565b61310881613071565b600381106130fc57600080fd5b61310881613092565b6131088161309556fea365627a7a72315820fbb561b28df275849ef87f7c04279ccad0b70e770a858312a633a18de89dda846c6578706572696d656e74616cf564736f6c63430005100040",
  "devdoc": {
    "details": "Call these functions as dry-run transactions for the frontend.",
    "methods": {
      "constructor": {
        "params": {
          "_nativeSymbolMarket": "Represents the symbol of the market for the native gas token, such as jAVAX",
          "_rewardDistributor": "The reward distributor for this contract"
        }
      },
      "getAccountLimits(address,address)": {
        "params": {
          "_account": "The account who's limits are being retrieved",
          "_joetroller": "The joetroller address"
        },
        "return": "An account's limits"
      },
      "getClaimableRewards(uint8,address,address,address)": {
        "params": {
          "_account": "The account that will receive the rewards",
          "_joe": "The joe token address",
          "_joetroller": "The joetroller address",
          "_rewardType": "0 = JOE, 1 = AVAX"
        },
        "return": "The amount of tokens claimed"
      },
      "jTokenBalances(address,address)": {
        "params": {
          "_account": "The account who's balances are being retrieved",
          "_jToken": "The market to retrieve account's balances for"
        },
        "return": "An account's balances in a market"
      },
      "jTokenBalancesAll(address[],address)": {
        "params": {
          "_account": "The account who's balances are being retrieved",
          "_jTokens": "All markets to retrieve account's balances for"
        },
        "return": "An account's balances in requested markets"
      },
      "jTokenMetadata(address)": {
        "params": {
          "_jToken": "The market to get metadata for"
        },
        "return": "The metadata for a market"
      },
      "jTokenMetadataAll(address[])": {
        "params": {
          "_jTokens": "All markets that metadata is being requested for"
        },
        "return": "The metadata for all markets"
      },
      "setAdmin(address)": {
        "params": {
          "_admin": "The address of the new admin"
        }
      },
      "setRewardDistributor(address)": {
        "params": {
          "_newRewardDistributor": "The address of the new reward distributor"
        }
      }
    }
  },
  "userdoc": {
    "methods": {
      "constructor": "Constructor function that initializes the native symbol and administrator for this contract",
      "getAccountLimits(address,address)": {
        "notice": "Get an account's limits"
      },
      "getClaimableRewards(uint8,address,address,address)": {
        "notice": "Claims available rewards of a given reward type for an account"
      },
      "jTokenBalances(address,address)": {
        "notice": "Get an account's balances in a market"
      },
      "jTokenBalancesAll(address[],address)": {
        "notice": "Get market balances for an account"
      },
      "jTokenMetadata(address)": {
        "notice": "Get metadata for a given market"
      },
      "jTokenMetadataAll(address[])": {
        "notice": "Get metadata for all markets"
      },
      "setAdmin(address)": {
        "notice": "Admin function to set new admin address"
      },
      "setRewardDistributor(address)": {
        "notice": "Admin function to set new reward distributor address"
      }
    },
    "notice": "This is a version of JoeLens that contains write transactions and pulls reward speeds from a RewardDistributor. JoeLensV2 mainly makes calls to various contracts to retrieve market/account data from our lending platform and wraps it up nicely to be sent to the frontend."
  },
  "storageLayout": {
    "storage": [
      {
        "astId": 22958,
        "contract": "contracts/Lens/JoeLensV2.sol:JoeLensV2",
        "label": "admin",
        "offset": 0,
        "slot": "0",
        "type": "t_address"
      },
      {
        "astId": 22960,
        "contract": "contracts/Lens/JoeLensV2.sol:JoeLensV2",
        "label": "rewardDistributor",
        "offset": 0,
        "slot": "1",
        "type": "t_address_payable"
      },
      {
        "astId": 22962,
        "contract": "contracts/Lens/JoeLensV2.sol:JoeLensV2",
        "label": "nativeSymbolMarket",
        "offset": 0,
        "slot": "2",
        "type": "t_string_storage"
      }
    ],
    "types": {
      "t_address": {
        "encoding": "inplace",
        "label": "address",
        "numberOfBytes": "20"
      },
      "t_address_payable": {
        "encoding": "inplace",
        "label": "address payable",
        "numberOfBytes": "20"
      },
      "t_string_storage": {
        "encoding": "bytes",
        "label": "string",
        "numberOfBytes": "32"
      }
    }
  }
}